{"contracts/KreatoPayment.sol":{"KreatoPayment":{"abi":[{"inputs":[{"internalType":"address","name":"_platformWallet","type":"address"}],"stateMutability":"nonpayable","type":"constructor"},{"inputs":[],"name":"ReentrancyGuardReentrantCall","type":"error"},{"inputs":[{"internalType":"address","name":"token","type":"address"}],"name":"SafeERC20FailedOperation","type":"error"},{"anonymous":false,"inputs":[{"indexed":true,"internalType":"address","name":"buyer","type":"address"},{"indexed":true,"internalType":"address","name":"creator","type":"address"},{"indexed":true,"internalType":"address","name":"token","type":"address"},{"indexed":false,"internalType":"uint256","name":"totalAmount","type":"uint256"},{"indexed":false,"internalType":"uint256","name":"creatorAmount","type":"uint256"},{"indexed":false,"internalType":"uint256","name":"platformFee","type":"uint256"},{"indexed":false,"internalType":"bytes32","name":"productId","type":"bytes32"},{"indexed":false,"internalType":"enum KreatoPayment.PaymentType","name":"paymentType","type":"uint8"}],"name":"PaymentProcessed","type":"event"},{"stateMutability":"payable","type":"fallback"},{"inputs":[],"name":"BPS_DENOMINATOR","outputs":[{"internalType":"uint256","name":"","type":"uint256"}],"stateMutability":"view","type":"function"},{"inputs":[],"name":"FEE_BPS","outputs":[{"internalType":"uint256","name":"","type":"uint256"}],"stateMutability":"view","type":"function"},{"inputs":[],"name":"OWNER","outputs":[{"internalType":"address","name":"","type":"address"}],"stateMutability":"view","type":"function"},{"inputs":[],"name":"PLATFORM_WALLET","outputs":[{"internalType":"address","name":"","type":"address"}],"stateMutability":"view","type":"function"},{"inputs":[{"internalType":"uint256","name":"amount","type":"uint256"}],"name":"calculateSplit","outputs":[{"internalType":"uint256","name":"creatorAmount","type":"uint256"},{"internalType":"uint256","name":"platformFee","type":"uint256"}],"stateMutability":"pure","type":"function"},{"inputs":[{"internalType":"address payable","name":"creator","type":"address"},{"internalType":"bytes32","name":"productId","type":"bytes32"},{"internalType":"enum KreatoPayment.PaymentType","name":"pType","type":"uint8"}],"name":"payWithETH","outputs":[],"stateMutability":"payable","type":"function"},{"inputs":[{"internalType":"address","name":"token","type":"address"},{"internalType":"uint256","name":"amount","type":"uint256"},{"internalType":"address","name":"creator","type":"address"},{"internalType":"bytes32","name":"productId","type":"bytes32"},{"internalType":"enum KreatoPayment.PaymentType","name":"pType","type":"uint8"}],"name":"payWithToken","outputs":[],"stateMutability":"nonpayable","type":"function"},{"inputs":[{"internalType":"address","name":"_new","type":"address"}],"name":"setPlatformWallet","outputs":[],"stateMutability":"nonpayable","type":"function"},{"stateMutability":"payable","type":"receive"}],"evm":{"bytecode":{"linkReferences":{},"object":"608060405234801561001057600080fd5b50604051610cb1380380610cb183398101604081905261002f91610086565b60017f9b779b17422d0df92223018b32b4d1fa46e071723d6817e2486d003becc55f005560018054336001600160a01b031991821617909155600080549091166001600160a01b03929092169190911790556100b6565b60006020828403121561009857600080fd5b81516001600160a01b03811681146100af57600080fd5b9392505050565b610bec806100c56000396000f3fe60806040526004361061007f5760003560e01c8063936844261161004e57806393684426146101cd578063bf333f2c146101e0578063e1a4521814610203578063eb8b12d414610219576100d1565b8063117803e3146101195780635b50433c146101565780638831e9cf146101785780638d62378114610198576100d1565b366100d15760405162461bcd60e51b815260206004820152601f60248201527f4b726561746f5061796d656e743a20757365207061795769746845544828290060448201526064015b60405180910390fd5b60405162461bcd60e51b815260206004820152601f60248201527f4b726561746f5061796d656e743a20757365207061795769746845544828290060448201526064016100c8565b34801561012557600080fd5b50600154610139906001600160a01b031681565b6040516001600160a01b0390911681526020015b60405180910390f35b34801561016257600080fd5b5061017661017136600461093d565b610239565b005b34801561018457600080fd5b50610176610193366004610998565b610403565b3480156101a457600080fd5b506101b86101b33660046109bc565b6104b3565b6040805192835260208301919091520161014d565b6101766101db3660046109d5565b6104e1565b3480156101ec57600080fd5b506101f560fa81565b60405190815260200161014d565b34801561020f57600080fd5b506101f561271081565b34801561022557600080fd5b50600054610139906001600160a01b031681565b61024161077a565b600084116102615760405162461bcd60e51b81526004016100c890610a13565b6001600160a01b0385166102c35760405162461bcd60e51b8152602060048201526024808201527f4b726561746f5061796d656e743a20696e76616c696420746f6b656e206164646044820152637265737360e01b60648201526084016100c8565b6001600160a01b0383166102e95760405162461bcd60e51b81526004016100c890610a54565b6000546001600160a01b03908116908416036103175760405162461bcd60e51b81526004016100c890610a9a565b600061271061032760fa87610af9565b6103319190610b16565b9050600061033f8287610b38565b9050866103576001600160a01b03821633308a610796565b61036b6001600160a01b03821687846107d2565b600054610385906001600160a01b038381169116856107d2565b876001600160a01b0316866001600160a01b0316336001600160a01b03167fd8f528a8f5f1444839ad64d9c4152dd8d28385e8ec57c5daf6e48432202cb0a78a86888b8b6040516103da959493929190610b4b565b60405180910390a45050506103fc6001600080516020610b9783398151915255565b5050505050565b6001546001600160a01b031633146104495760405162461bcd60e51b81526020600482015260096024820152682737ba1037bbb732b960b91b60448201526064016100c8565b6001600160a01b0381166104915760405162461bcd60e51b815260206004820152600f60248201526e496e76616c6964206164647265737360881b60448201526064016100c8565b600080546001600160a01b0319166001600160a01b0392909216919091179055565b6000806127106104c460fa85610af9565b6104ce9190610b16565b90506104da8184610b38565b9150915091565b6104e961077a565b600034116105095760405162461bcd60e51b81526004016100c890610a13565b6001600160a01b03831661052f5760405162461bcd60e51b81526004016100c890610a54565b6000546001600160a01b039081169084160361055d5760405162461bcd60e51b81526004016100c890610a9a565b34600061271061056e60fa84610af9565b6105789190610b16565b905060006105868284610b38565b90506000866001600160a01b03168260405160006040518083038185875af1925050503d80600081146105d5576040519150601f19603f3d011682016040523d82523d6000602084013e6105da565b606091505b50509050806106415760405162461bcd60e51b815260206004820152602d60248201527f4b726561746f5061796d656e743a20455448207472616e7366657220746f206360448201526c1c99585d1bdc8819985a5b1959609a1b60648201526084016100c8565b600080546040516001600160a01b039091169085908381818185875af1925050503d806000811461068e576040519150601f19603f3d011682016040523d82523d6000602084013e610693565b606091505b50509050806106fb5760405162461bcd60e51b815260206004820152602e60248201527f4b726561746f5061796d656e743a20455448207472616e7366657220746f207060448201526d1b185d199bdc9b4819985a5b195960921b60648201526084016100c8565b60006001600160a01b0316886001600160a01b0316336001600160a01b03167fd8f528a8f5f1444839ad64d9c4152dd8d28385e8ec57c5daf6e48432202cb0a78887898d8d604051610751959493929190610b4b565b60405180910390a450505050506107756001600080516020610b9783398151915255565b505050565b610782610807565b6002600080516020610b9783398151915255565b6107a4848484846001610839565b6107cc57604051635274afe760e01b81526001600160a01b03851660048201526024016100c8565b50505050565b6107df83838360016108ab565b61077557604051635274afe760e01b81526001600160a01b03841660048201526024016100c8565b600080516020610b978339815191525460020361083757604051633ee5aeb560e01b815260040160405180910390fd5b565b6040516323b872dd60e01b60008181526001600160a01b038781166004528616602452604485905291602083606481808c5af19250600160005114831661089957838315161561088c573d6000823e3d81fd5b6000883b113d1516831692505b60405250600060605295945050505050565b60405163a9059cbb60e01b60008181526001600160a01b038616600452602485905291602083604481808b5af1925060016000511483166109055783831516156108f8573d6000823e3d81fd5b6000873b113d1516831692505b60405250949350505050565b6001600160a01b038116811461092657600080fd5b50565b80356003811061093857600080fd5b919050565b600080600080600060a0868803121561095557600080fd5b853561096081610911565b945060208601359350604086013561097781610911565b92506060860135915061098c60808701610929565b90509295509295909350565b6000602082840312156109aa57600080fd5b81356109b581610911565b9392505050565b6000602082840312156109ce57600080fd5b5035919050565b6000806000606084860312156109ea57600080fd5b83356109f581610911565b925060208401359150610a0a60408501610929565b90509250925092565b60208082526021908201527f4b726561746f5061796d656e743a20616d6f756e74206d757374206265203e206040820152600360fc1b606082015260800190565b60208082526026908201527f4b726561746f5061796d656e743a20696e76616c69642063726561746f72206160408201526564647265737360d01b606082015260800190565b60208082526029908201527f4b726561746f5061796d656e743a2063726561746f722063616e6e6f7420626560408201526820706c6174666f726d60b81b606082015260800190565b634e487b7160e01b600052601160045260246000fd5b8082028115828204841417610b1057610b10610ae3565b92915050565b600082610b3357634e487b7160e01b600052601260045260246000fd5b500490565b81810381811115610b1057610b10610ae3565b600060a08201905086825285602083015284604083015283606083015260038310610b8657634e487b7160e01b600052602160045260246000fd5b826080830152969550505050505056fe9b779b17422d0df92223018b32b4d1fa46e071723d6817e2486d003becc55f00a2646970667358221220bdcee13139856e08010bbc1c6b803f299b0476345bb34f9f67085b29987c23cd64736f6c63430008140033","opcodes":"PUSH1 0x80 PUSH1 0x40 MSTORE CALLVALUE DUP1 ISZERO PUSH2 0x10 JUMPI PUSH1 0x0 DUP1 REVERT JUMPDEST POP PUSH1 0x40 MLOAD PUSH2 0xCB1 CODESIZE SUB DUP1 PUSH2 0xCB1 DUP4 CODECOPY DUP2 ADD PUSH1 0x40 DUP2 SWAP1 MSTORE PUSH2 0x2F SWAP2 PUSH2 0x86 JUMP JUMPDEST PUSH1 0x1 PUSH32 0x9B779B17422D0DF92223018B32B4D1FA46E071723D6817E2486D003BECC55F00 SSTORE PUSH1 0x1 DUP1 SLOAD CALLER PUSH1 0x1 PUSH1 0x1 PUSH1 0xA0 SHL SUB NOT SWAP2 DUP3 AND OR SWAP1 SWAP2 SSTORE PUSH1 0x0 DUP1 SLOAD SWAP1 SWAP2 AND PUSH1 0x1 PUSH1 0x1 PUSH1 0xA0 SHL SUB SWAP3 SWAP1 SWAP3 AND SWAP2 SWAP1 SWAP2 OR SWAP1 SSTORE PUSH2 0xB6 JUMP JUMPDEST PUSH1 0x0 PUSH1 0x20 DUP3 DUP5 SUB SLT ISZERO PUSH2 0x98 JUMPI PUSH1 0x0 DUP1 REVERT JUMPDEST DUP2 MLOAD PUSH1 0x1 PUSH1 0x1 PUSH1 0xA0 SHL SUB DUP2 AND DUP2 EQ PUSH2 0xAF JUMPI PUSH1 0x0 DUP1 REVERT JUMPDEST SWAP4 SWAP3 POP POP POP JUMP JUMPDEST PUSH2 0xBEC DUP1 PUSH2 0xC5 PUSH1 0x0 CODECOPY PUSH1 0x0 RETURN INVALID PUSH1 0x80 PUSH1 0x40 MSTORE PUSH1 0x4 CALLDATASIZE LT PUSH2 0x7F JUMPI PUSH1 0x0 CALLDATALOAD PUSH1 0xE0 SHR DUP1 PUSH4 0x93684426 GT PUSH2 0x4E JUMPI DUP1 PUSH4 0x93684426 EQ PUSH2 0x1CD JUMPI DUP1 PUSH4 0xBF333F2C EQ PUSH2 0x1E0 JUMPI DUP1 PUSH4 0xE1A45218 EQ PUSH2 0x203 JUMPI DUP1 PUSH4 0xEB8B12D4 EQ PUSH2 0x219 JUMPI PUSH2 0xD1 JUMP JUMPDEST DUP1 PUSH4 0x117803E3 EQ PUSH2 0x119 JUMPI DUP1 PUSH4 0x5B50433C EQ PUSH2 0x156 JUMPI DUP1 PUSH4 0x8831E9CF EQ PUSH2 0x178 JUMPI DUP1 PUSH4 0x8D623781 EQ PUSH2 0x198 JUMPI PUSH2 0xD1 JUMP JUMPDEST CALLDATASIZE PUSH2 0xD1 JUMPI PUSH1 0x40 MLOAD PUSH3 0x461BCD PUSH1 0xE5 SHL DUP2 MSTORE PUSH1 0x20 PUSH1 0x4 DUP3 ADD MSTORE PUSH1 0x1F PUSH1 0x24 DUP3 ADD MSTORE PUSH32 0x4B726561746F5061796D656E743A207573652070617957697468455448282900 PUSH1 0x44 DUP3 ADD MSTORE PUSH1 0x64 ADD JUMPDEST PUSH1 0x40 MLOAD DUP1 SWAP2 SUB SWAP1 REVERT JUMPDEST PUSH1 0x40 MLOAD PUSH3 0x461BCD PUSH1 0xE5 SHL DUP2 MSTORE PUSH1 0x20 PUSH1 0x4 DUP3 ADD MSTORE PUSH1 0x1F PUSH1 0x24 DUP3 ADD MSTORE PUSH32 0x4B726561746F5061796D656E743A207573652070617957697468455448282900 PUSH1 0x44 DUP3 ADD MSTORE PUSH1 0x64 ADD PUSH2 0xC8 JUMP JUMPDEST CALLVALUE DUP1 ISZERO PUSH2 0x125 JUMPI PUSH1 0x0 DUP1 REVERT JUMPDEST POP PUSH1 0x1 SLOAD PUSH2 0x139 SWAP1 PUSH1 0x1 PUSH1 0x1 PUSH1 0xA0 SHL SUB AND DUP2 JUMP JUMPDEST PUSH1 0x40 MLOAD PUSH1 0x1 PUSH1 0x1 PUSH1 0xA0 SHL SUB SWAP1 SWAP2 AND DUP2 MSTORE PUSH1 0x20 ADD JUMPDEST PUSH1 0x40 MLOAD DUP1 SWAP2 SUB SWAP1 RETURN JUMPDEST CALLVALUE DUP1 ISZERO PUSH2 0x162 JUMPI PUSH1 0x0 DUP1 REVERT JUMPDEST POP PUSH2 0x176 PUSH2 0x171 CALLDATASIZE PUSH1 0x4 PUSH2 0x93D JUMP JUMPDEST PUSH2 0x239 JUMP JUMPDEST STOP JUMPDEST CALLVALUE DUP1 ISZERO PUSH2 0x184 JUMPI PUSH1 0x0 DUP1 REVERT JUMPDEST POP PUSH2 0x176 PUSH2 0x193 CALLDATASIZE PUSH1 0x4 PUSH2 0x998 JUMP JUMPDEST PUSH2 0x403 JUMP JUMPDEST CALLVALUE DUP1 ISZERO PUSH2 0x1A4 JUMPI PUSH1 0x0 DUP1 REVERT JUMPDEST POP PUSH2 0x1B8 PUSH2 0x1B3 CALLDATASIZE PUSH1 0x4 PUSH2 0x9BC JUMP JUMPDEST PUSH2 0x4B3 JUMP JUMPDEST PUSH1 0x40 DUP1 MLOAD SWAP3 DUP4 MSTORE PUSH1 0x20 DUP4 ADD SWAP2 SWAP1 SWAP2 MSTORE ADD PUSH2 0x14D JUMP JUMPDEST PUSH2 0x176 PUSH2 0x1DB CALLDATASIZE PUSH1 0x4 PUSH2 0x9D5 JUMP JUMPDEST PUSH2 0x4E1 JUMP JUMPDEST CALLVALUE DUP1 ISZERO PUSH2 0x1EC JUMPI PUSH1 0x0 DUP1 REVERT JUMPDEST POP PUSH2 0x1F5 PUSH1 0xFA DUP2 JUMP JUMPDEST PUSH1 0x40 MLOAD SWAP1 DUP2 MSTORE PUSH1 0x20 ADD PUSH2 0x14D JUMP JUMPDEST CALLVALUE DUP1 ISZERO PUSH2 0x20F JUMPI PUSH1 0x0 DUP1 REVERT JUMPDEST POP PUSH2 0x1F5 PUSH2 0x2710 DUP2 JUMP JUMPDEST CALLVALUE DUP1 ISZERO PUSH2 0x225 JUMPI PUSH1 0x0 DUP1 REVERT JUMPDEST POP PUSH1 0x0 SLOAD PUSH2 0x139 SWAP1 PUSH1 0x1 PUSH1 0x1 PUSH1 0xA0 SHL SUB AND DUP2 JUMP JUMPDEST PUSH2 0x241 PUSH2 0x77A JUMP JUMPDEST PUSH1 0x0 DUP5 GT PUSH2 0x261 JUMPI PUSH1 0x40 MLOAD PUSH3 0x461BCD PUSH1 0xE5 SHL DUP2 MSTORE PUSH1 0x4 ADD PUSH2 0xC8 SWAP1 PUSH2 0xA13 JUMP JUMPDEST PUSH1 0x1 PUSH1 0x1 PUSH1 0xA0 SHL SUB DUP6 AND PUSH2 0x2C3 JUMPI PUSH1 0x40 MLOAD PUSH3 0x461BCD PUSH1 0xE5 SHL DUP2 MSTORE PUSH1 0x20 PUSH1 0x4 DUP3 ADD MSTORE PUSH1 0x24 DUP1 DUP3 ADD MSTORE PUSH32 0x4B726561746F5061796D656E743A20696E76616C696420746F6B656E20616464 PUSH1 0x44 DUP3 ADD MSTORE PUSH4 0x72657373 PUSH1 0xE0 SHL PUSH1 0x64 DUP3 ADD MSTORE PUSH1 0x84 ADD PUSH2 0xC8 JUMP JUMPDEST PUSH1 0x1 PUSH1 0x1 PUSH1 0xA0 SHL SUB DUP4 AND PUSH2 0x2E9 JUMPI PUSH1 0x40 MLOAD PUSH3 0x461BCD PUSH1 0xE5 SHL DUP2 MSTORE PUSH1 0x4 ADD PUSH2 0xC8 SWAP1 PUSH2 0xA54 JUMP JUMPDEST PUSH1 0x0 SLOAD PUSH1 0x1 PUSH1 0x1 PUSH1 0xA0 SHL SUB SWAP1 DUP2 AND SWAP1 DUP5 AND SUB PUSH2 0x317 JUMPI PUSH1 0x40 MLOAD PUSH3 0x461BCD PUSH1 0xE5 SHL DUP2 MSTORE PUSH1 0x4 ADD PUSH2 0xC8 SWAP1 PUSH2 0xA9A JUMP JUMPDEST PUSH1 0x0 PUSH2 0x2710 PUSH2 0x327 PUSH1 0xFA DUP8 PUSH2 0xAF9 JUMP JUMPDEST PUSH2 0x331 SWAP2 SWAP1 PUSH2 0xB16 JUMP JUMPDEST SWAP1 POP PUSH1 0x0 PUSH2 0x33F DUP3 DUP8 PUSH2 0xB38 JUMP JUMPDEST SWAP1 POP DUP7 PUSH2 0x357 PUSH1 0x1 PUSH1 0x1 PUSH1 0xA0 SHL SUB DUP3 AND CALLER ADDRESS DUP11 PUSH2 0x796 JUMP JUMPDEST PUSH2 0x36B PUSH1 0x1 PUSH1 0x1 PUSH1 0xA0 SHL SUB DUP3 AND DUP8 DUP5 PUSH2 0x7D2 JUMP JUMPDEST PUSH1 0x0 SLOAD PUSH2 0x385 SWAP1 PUSH1 0x1 PUSH1 0x1 PUSH1 0xA0 SHL SUB DUP4 DUP2 AND SWAP2 AND DUP6 PUSH2 0x7D2 JUMP JUMPDEST DUP8 PUSH1 0x1 PUSH1 0x1 PUSH1 0xA0 SHL SUB AND DUP7 PUSH1 0x1 PUSH1 0x1 PUSH1 0xA0 SHL SUB AND CALLER PUSH1 0x1 PUSH1 0x1 PUSH1 0xA0 SHL SUB AND PUSH32 0xD8F528A8F5F1444839AD64D9C4152DD8D28385E8EC57C5DAF6E48432202CB0A7 DUP11 DUP7 DUP9 DUP12 DUP12 PUSH1 0x40 MLOAD PUSH2 0x3DA SWAP6 SWAP5 SWAP4 SWAP3 SWAP2 SWAP1 PUSH2 0xB4B JUMP JUMPDEST PUSH1 0x40 MLOAD DUP1 SWAP2 SUB SWAP1 LOG4 POP POP POP PUSH2 0x3FC PUSH1 0x1 PUSH1 0x0 DUP1 MLOAD PUSH1 0x20 PUSH2 0xB97 DUP4 CODECOPY DUP2 MLOAD SWAP2 MSTORE SSTORE JUMP JUMPDEST POP POP POP POP POP JUMP JUMPDEST PUSH1 0x1 SLOAD PUSH1 0x1 PUSH1 0x1 PUSH1 0xA0 SHL SUB AND CALLER EQ PUSH2 0x449 JUMPI PUSH1 0x40 MLOAD PUSH3 0x461BCD PUSH1 0xE5 SHL DUP2 MSTORE PUSH1 0x20 PUSH1 0x4 DUP3 ADD MSTORE PUSH1 0x9 PUSH1 0x24 DUP3 ADD MSTORE PUSH9 0x2737BA1037BBB732B9 PUSH1 0xB9 SHL PUSH1 0x44 DUP3 ADD MSTORE PUSH1 0x64 ADD PUSH2 0xC8 JUMP JUMPDEST PUSH1 0x1 PUSH1 0x1 PUSH1 0xA0 SHL SUB DUP2 AND PUSH2 0x491 JUMPI PUSH1 0x40 MLOAD PUSH3 0x461BCD PUSH1 0xE5 SHL DUP2 MSTORE PUSH1 0x20 PUSH1 0x4 DUP3 ADD MSTORE PUSH1 0xF PUSH1 0x24 DUP3 ADD MSTORE PUSH15 0x496E76616C69642061646472657373 PUSH1 0x88 SHL PUSH1 0x44 DUP3 ADD MSTORE PUSH1 0x64 ADD PUSH2 0xC8 JUMP JUMPDEST PUSH1 0x0 DUP1 SLOAD PUSH1 0x1 PUSH1 0x1 PUSH1 0xA0 SHL SUB NOT AND PUSH1 0x1 PUSH1 0x1 PUSH1 0xA0 SHL SUB SWAP3 SWAP1 SWAP3 AND SWAP2 SWAP1 SWAP2 OR SWAP1 SSTORE JUMP JUMPDEST PUSH1 0x0 DUP1 PUSH2 0x2710 PUSH2 0x4C4 PUSH1 0xFA DUP6 PUSH2 0xAF9 JUMP JUMPDEST PUSH2 0x4CE SWAP2 SWAP1 PUSH2 0xB16 JUMP JUMPDEST SWAP1 POP PUSH2 0x4DA DUP2 DUP5 PUSH2 0xB38 JUMP JUMPDEST SWAP2 POP SWAP2 POP SWAP2 JUMP JUMPDEST PUSH2 0x4E9 PUSH2 0x77A JUMP JUMPDEST PUSH1 0x0 CALLVALUE GT PUSH2 0x509 JUMPI PUSH1 0x40 MLOAD PUSH3 0x461BCD PUSH1 0xE5 SHL DUP2 MSTORE PUSH1 0x4 ADD PUSH2 0xC8 SWAP1 PUSH2 0xA13 JUMP JUMPDEST PUSH1 0x1 PUSH1 0x1 PUSH1 0xA0 SHL SUB DUP4 AND PUSH2 0x52F JUMPI PUSH1 0x40 MLOAD PUSH3 0x461BCD PUSH1 0xE5 SHL DUP2 MSTORE PUSH1 0x4 ADD PUSH2 0xC8 SWAP1 PUSH2 0xA54 JUMP JUMPDEST PUSH1 0x0 SLOAD PUSH1 0x1 PUSH1 0x1 PUSH1 0xA0 SHL SUB SWAP1 DUP2 AND SWAP1 DUP5 AND SUB PUSH2 0x55D JUMPI PUSH1 0x40 MLOAD PUSH3 0x461BCD PUSH1 0xE5 SHL DUP2 MSTORE PUSH1 0x4 ADD PUSH2 0xC8 SWAP1 PUSH2 0xA9A JUMP JUMPDEST CALLVALUE PUSH1 0x0 PUSH2 0x2710 PUSH2 0x56E PUSH1 0xFA DUP5 PUSH2 0xAF9 JUMP JUMPDEST PUSH2 0x578 SWAP2 SWAP1 PUSH2 0xB16 JUMP JUMPDEST SWAP1 POP PUSH1 0x0 PUSH2 0x586 DUP3 DUP5 PUSH2 0xB38 JUMP JUMPDEST SWAP1 POP PUSH1 0x0 DUP7 PUSH1 0x1 PUSH1 0x1 PUSH1 0xA0 SHL SUB AND DUP3 PUSH1 0x40 MLOAD PUSH1 0x0 PUSH1 0x40 MLOAD DUP1 DUP4 SUB DUP2 DUP6 DUP8 GAS CALL SWAP3 POP POP POP RETURNDATASIZE DUP1 PUSH1 0x0 DUP2 EQ PUSH2 0x5D5 JUMPI PUSH1 0x40 MLOAD SWAP2 POP PUSH1 0x1F NOT PUSH1 0x3F RETURNDATASIZE ADD AND DUP3 ADD PUSH1 0x40 MSTORE RETURNDATASIZE DUP3 MSTORE RETURNDATASIZE PUSH1 0x0 PUSH1 0x20 DUP5 ADD RETURNDATACOPY PUSH2 0x5DA JUMP JUMPDEST PUSH1 0x60 SWAP2 POP JUMPDEST POP POP SWAP1 POP DUP1 PUSH2 0x641 JUMPI PUSH1 0x40 MLOAD PUSH3 0x461BCD PUSH1 0xE5 SHL DUP2 MSTORE PUSH1 0x20 PUSH1 0x4 DUP3 ADD MSTORE PUSH1 0x2D PUSH1 0x24 DUP3 ADD MSTORE PUSH32 0x4B726561746F5061796D656E743A20455448207472616E7366657220746F2063 PUSH1 0x44 DUP3 ADD MSTORE PUSH13 0x1C99585D1BDC8819985A5B1959 PUSH1 0x9A SHL PUSH1 0x64 DUP3 ADD MSTORE PUSH1 0x84 ADD PUSH2 0xC8 JUMP JUMPDEST PUSH1 0x0 DUP1 SLOAD PUSH1 0x40 MLOAD PUSH1 0x1 PUSH1 0x1 PUSH1 0xA0 SHL SUB SWAP1 SWAP2 AND SWAP1 DUP6 SWAP1 DUP4 DUP2 DUP2 DUP2 DUP6 DUP8 GAS CALL SWAP3 POP POP POP RETURNDATASIZE DUP1 PUSH1 0x0 DUP2 EQ PUSH2 0x68E JUMPI PUSH1 0x40 MLOAD SWAP2 POP PUSH1 0x1F NOT PUSH1 0x3F RETURNDATASIZE ADD AND DUP3 ADD PUSH1 0x40 MSTORE RETURNDATASIZE DUP3 MSTORE RETURNDATASIZE PUSH1 0x0 PUSH1 0x20 DUP5 ADD RETURNDATACOPY PUSH2 0x693 JUMP JUMPDEST PUSH1 0x60 SWAP2 POP JUMPDEST POP POP SWAP1 POP DUP1 PUSH2 0x6FB JUMPI PUSH1 0x40 MLOAD PUSH3 0x461BCD PUSH1 0xE5 SHL DUP2 MSTORE PUSH1 0x20 PUSH1 0x4 DUP3 ADD MSTORE PUSH1 0x2E PUSH1 0x24 DUP3 ADD MSTORE PUSH32 0x4B726561746F5061796D656E743A20455448207472616E7366657220746F2070 PUSH1 0x44 DUP3 ADD MSTORE PUSH14 0x1B185D199BDC9B4819985A5B1959 PUSH1 0x92 SHL PUSH1 0x64 DUP3 ADD MSTORE PUSH1 0x84 ADD PUSH2 0xC8 JUMP JUMPDEST PUSH1 0x0 PUSH1 0x1 PUSH1 0x1 PUSH1 0xA0 SHL SUB AND DUP9 PUSH1 0x1 PUSH1 0x1 PUSH1 0xA0 SHL SUB AND CALLER PUSH1 0x1 PUSH1 0x1 PUSH1 0xA0 SHL SUB AND PUSH32 0xD8F528A8F5F1444839AD64D9C4152DD8D28385E8EC57C5DAF6E48432202CB0A7 DUP9 DUP8 DUP10 DUP14 DUP14 PUSH1 0x40 MLOAD PUSH2 0x751 SWAP6 SWAP5 SWAP4 SWAP3 SWAP2 SWAP1 PUSH2 0xB4B JUMP JUMPDEST PUSH1 0x40 MLOAD DUP1 SWAP2 SUB SWAP1 LOG4 POP POP POP POP POP PUSH2 0x775 PUSH1 0x1 PUSH1 0x0 DUP1 MLOAD PUSH1 0x20 PUSH2 0xB97 DUP4 CODECOPY DUP2 MLOAD SWAP2 MSTORE SSTORE JUMP JUMPDEST POP POP POP JUMP JUMPDEST PUSH2 0x782 PUSH2 0x807 JUMP JUMPDEST PUSH1 0x2 PUSH1 0x0 DUP1 MLOAD PUSH1 0x20 PUSH2 0xB97 DUP4 CODECOPY DUP2 MLOAD SWAP2 MSTORE SSTORE JUMP JUMPDEST PUSH2 0x7A4 DUP5 DUP5 DUP5 DUP5 PUSH1 0x1 PUSH2 0x839 JUMP JUMPDEST PUSH2 0x7CC JUMPI PUSH1 0x40 MLOAD PUSH4 0x5274AFE7 PUSH1 0xE0 SHL DUP2 MSTORE PUSH1 0x1 PUSH1 0x1 PUSH1 0xA0 SHL SUB DUP6 AND PUSH1 0x4 DUP3 ADD MSTORE PUSH1 0x24 ADD PUSH2 0xC8 JUMP JUMPDEST POP POP POP POP JUMP JUMPDEST PUSH2 0x7DF DUP4 DUP4 DUP4 PUSH1 0x1 PUSH2 0x8AB JUMP JUMPDEST PUSH2 0x775 JUMPI PUSH1 0x40 MLOAD PUSH4 0x5274AFE7 PUSH1 0xE0 SHL DUP2 MSTORE PUSH1 0x1 PUSH1 0x1 PUSH1 0xA0 SHL SUB DUP5 AND PUSH1 0x4 DUP3 ADD MSTORE PUSH1 0x24 ADD PUSH2 0xC8 JUMP JUMPDEST PUSH1 0x0 DUP1 MLOAD PUSH1 0x20 PUSH2 0xB97 DUP4 CODECOPY DUP2 MLOAD SWAP2 MSTORE SLOAD PUSH1 0x2 SUB PUSH2 0x837 JUMPI PUSH1 0x40 MLOAD PUSH4 0x3EE5AEB5 PUSH1 0xE0 SHL DUP2 MSTORE PUSH1 0x4 ADD PUSH1 0x40 MLOAD DUP1 SWAP2 SUB SWAP1 REVERT JUMPDEST JUMP JUMPDEST PUSH1 0x40 MLOAD PUSH4 0x23B872DD PUSH1 0xE0 SHL PUSH1 0x0 DUP2 DUP2 MSTORE PUSH1 0x1 PUSH1 0x1 PUSH1 0xA0 SHL SUB DUP8 DUP2 AND PUSH1 0x4 MSTORE DUP7 AND PUSH1 0x24 MSTORE PUSH1 0x44 DUP6 SWAP1 MSTORE SWAP2 PUSH1 0x20 DUP4 PUSH1 0x64 DUP2 DUP1 DUP13 GAS CALL SWAP3 POP PUSH1 0x1 PUSH1 0x0 MLOAD EQ DUP4 AND PUSH2 0x899 JUMPI DUP4 DUP4 ISZERO AND ISZERO PUSH2 0x88C JUMPI RETURNDATASIZE PUSH1 0x0 DUP3 RETURNDATACOPY RETURNDATASIZE DUP2 REVERT JUMPDEST PUSH1 0x0 DUP9 EXTCODESIZE GT RETURNDATASIZE ISZERO AND DUP4 AND SWAP3 POP JUMPDEST PUSH1 0x40 MSTORE POP PUSH1 0x0 PUSH1 0x60 MSTORE SWAP6 SWAP5 POP POP POP POP POP JUMP JUMPDEST PUSH1 0x40 MLOAD PUSH4 0xA9059CBB PUSH1 0xE0 SHL PUSH1 0x0 DUP2 DUP2 MSTORE PUSH1 0x1 PUSH1 0x1 PUSH1 0xA0 SHL SUB DUP7 AND PUSH1 0x4 MSTORE PUSH1 0x24 DUP6 SWAP1 MSTORE SWAP2 PUSH1 0x20 DUP4 PUSH1 0x44 DUP2 DUP1 DUP12 GAS CALL SWAP3 POP PUSH1 0x1 PUSH1 0x0 MLOAD EQ DUP4 AND PUSH2 0x905 JUMPI DUP4 DUP4 ISZERO AND ISZERO PUSH2 0x8F8 JUMPI RETURNDATASIZE PUSH1 0x0 DUP3 RETURNDATACOPY RETURNDATASIZE DUP2 REVERT JUMPDEST PUSH1 0x0 DUP8 EXTCODESIZE GT RETURNDATASIZE ISZERO AND DUP4 AND SWAP3 POP JUMPDEST PUSH1 0x40 MSTORE POP SWAP5 SWAP4 POP POP POP POP JUMP JUMPDEST PUSH1 0x1 PUSH1 0x1 PUSH1 0xA0 SHL SUB DUP2 AND DUP2 EQ PUSH2 0x926 JUMPI PUSH1 0x0 DUP1 REVERT JUMPDEST POP JUMP JUMPDEST DUP1 CALLDATALOAD PUSH1 0x3 DUP2 LT PUSH2 0x938 JUMPI PUSH1 0x0 DUP1 REVERT JUMPDEST SWAP2 SWAP1 POP JUMP JUMPDEST PUSH1 0x0 DUP1 PUSH1 0x0 DUP1 PUSH1 0x0 PUSH1 0xA0 DUP7 DUP9 SUB SLT ISZERO PUSH2 0x955 JUMPI PUSH1 0x0 DUP1 REVERT JUMPDEST DUP6 CALLDATALOAD PUSH2 0x960 DUP2 PUSH2 0x911 JUMP JUMPDEST SWAP5 POP PUSH1 0x20 DUP7 ADD CALLDATALOAD SWAP4 POP PUSH1 0x40 DUP7 ADD CALLDATALOAD PUSH2 0x977 DUP2 PUSH2 0x911 JUMP JUMPDEST SWAP3 POP PUSH1 0x60 DUP7 ADD CALLDATALOAD SWAP2 POP PUSH2 0x98C PUSH1 0x80 DUP8 ADD PUSH2 0x929 JUMP JUMPDEST SWAP1 POP SWAP3 SWAP6 POP SWAP3 SWAP6 SWAP1 SWAP4 POP JUMP JUMPDEST PUSH1 0x0 PUSH1 0x20 DUP3 DUP5 SUB SLT ISZERO PUSH2 0x9AA JUMPI PUSH1 0x0 DUP1 REVERT JUMPDEST DUP2 CALLDATALOAD PUSH2 0x9B5 DUP2 PUSH2 0x911 JUMP JUMPDEST SWAP4 SWAP3 POP POP POP JUMP JUMPDEST PUSH1 0x0 PUSH1 0x20 DUP3 DUP5 SUB SLT ISZERO PUSH2 0x9CE JUMPI PUSH1 0x0 DUP1 REVERT JUMPDEST POP CALLDATALOAD SWAP2 SWAP1 POP JUMP JUMPDEST PUSH1 0x0 DUP1 PUSH1 0x0 PUSH1 0x60 DUP5 DUP7 SUB SLT ISZERO PUSH2 0x9EA JUMPI PUSH1 0x0 DUP1 REVERT JUMPDEST DUP4 CALLDATALOAD PUSH2 0x9F5 DUP2 PUSH2 0x911 JUMP JUMPDEST SWAP3 POP PUSH1 0x20 DUP5 ADD CALLDATALOAD SWAP2 POP PUSH2 0xA0A PUSH1 0x40 DUP6 ADD PUSH2 0x929 JUMP JUMPDEST SWAP1 POP SWAP3 POP SWAP3 POP SWAP3 JUMP JUMPDEST PUSH1 0x20 DUP1 DUP3 MSTORE PUSH1 0x21 SWAP1 DUP3 ADD MSTORE PUSH32 0x4B726561746F5061796D656E743A20616D6F756E74206D757374206265203E20 PUSH1 0x40 DUP3 ADD MSTORE PUSH1 0x3 PUSH1 0xFC SHL PUSH1 0x60 DUP3 ADD MSTORE PUSH1 0x80 ADD SWAP1 JUMP JUMPDEST PUSH1 0x20 DUP1 DUP3 MSTORE PUSH1 0x26 SWAP1 DUP3 ADD MSTORE PUSH32 0x4B726561746F5061796D656E743A20696E76616C69642063726561746F722061 PUSH1 0x40 DUP3 ADD MSTORE PUSH6 0x646472657373 PUSH1 0xD0 SHL PUSH1 0x60 DUP3 ADD MSTORE PUSH1 0x80 ADD SWAP1 JUMP JUMPDEST PUSH1 0x20 DUP1 DUP3 MSTORE PUSH1 0x29 SWAP1 DUP3 ADD MSTORE PUSH32 0x4B726561746F5061796D656E743A2063726561746F722063616E6E6F74206265 PUSH1 0x40 DUP3 ADD MSTORE PUSH9 0x20706C6174666F726D PUSH1 0xB8 SHL PUSH1 0x60 DUP3 ADD MSTORE PUSH1 0x80 ADD SWAP1 JUMP JUMPDEST PUSH4 0x4E487B71 PUSH1 0xE0 SHL PUSH1 0x0 MSTORE PUSH1 0x11 PUSH1 0x4 MSTORE PUSH1 0x24 PUSH1 0x0 REVERT JUMPDEST DUP1 DUP3 MUL DUP2 ISZERO DUP3 DUP3 DIV DUP5 EQ OR PUSH2 0xB10 JUMPI PUSH2 0xB10 PUSH2 0xAE3 JUMP JUMPDEST SWAP3 SWAP2 POP POP JUMP JUMPDEST PUSH1 0x0 DUP3 PUSH2 0xB33 JUMPI PUSH4 0x4E487B71 PUSH1 0xE0 SHL PUSH1 0x0 MSTORE PUSH1 0x12 PUSH1 0x4 MSTORE PUSH1 0x24 PUSH1 0x0 REVERT JUMPDEST POP DIV SWAP1 JUMP JUMPDEST DUP2 DUP2 SUB DUP2 DUP2 GT ISZERO PUSH2 0xB10 JUMPI PUSH2 0xB10 PUSH2 0xAE3 JUMP JUMPDEST PUSH1 0x0 PUSH1 0xA0 DUP3 ADD SWAP1 POP DUP7 DUP3 MSTORE DUP6 PUSH1 0x20 DUP4 ADD MSTORE DUP5 PUSH1 0x40 DUP4 ADD MSTORE DUP4 PUSH1 0x60 DUP4 ADD MSTORE PUSH1 0x3 DUP4 LT PUSH2 0xB86 JUMPI PUSH4 0x4E487B71 PUSH1 0xE0 SHL PUSH1 0x0 MSTORE PUSH1 0x21 PUSH1 0x4 MSTORE PUSH1 0x24 PUSH1 0x0 REVERT JUMPDEST DUP3 PUSH1 0x80 DUP4 ADD MSTORE SWAP7 SWAP6 POP POP POP POP POP POP JUMP INVALID SWAP12 PUSH24 0x9B17422D0DF92223018B32B4D1FA46E071723D6817E2486D STOP EXTCODESIZE 0xEC 0xC5 PUSH0 STOP LOG2 PUSH5 0x6970667358 0x22 SLT KECCAK256 0xBD 0xCE 0xE1 BALANCE CODECOPY DUP6 PUSH15 0x8010BBC1C6B803F299B0476345BB3 0x4F SWAP16 PUSH8 0x85B29987C23CD64 PUSH20 0x6F6C634300081400330000000000000000000000 "},"methodIdentifiers":{"BPS_DENOMINATOR()":"e1a45218","FEE_BPS()":"bf333f2c","OWNER()":"117803e3","PLATFORM_WALLET()":"eb8b12d4","calculateSplit(uint256)":"8d623781","payWithETH(address,bytes32,uint8)":"93684426","payWithToken(address,uint256,address,bytes32,uint8)":"5b50433c","setPlatformWallet(address)":"8831e9cf"}}}}}